{
  "_format": "hh-sol-artifact-1",
  "contractName": "OrderBook",
  "sourceName": "contracts/OrderBook.sol",
  "abi": [
    {
      "inputs": [
        {
          "internalType": "address",
          "name": "_tokenContract",
          "type": "address"
        }
      ],
      "stateMutability": "nonpayable",
      "type": "constructor"
    },
    {
      "anonymous": false,
      "inputs": [
        {
          "indexed": false,
          "internalType": "uint256",
          "name": "amount",
          "type": "uint256"
        }
      ],
      "name": "FeesCollected",
      "type": "event"
    },
    {
      "anonymous": false,
      "inputs": [
        {
          "indexed": true,
          "internalType": "uint256",
          "name": "orderId",
          "type": "uint256"
        }
      ],
      "name": "OrderCancelled",
      "type": "event"
    },
    {
      "anonymous": false,
      "inputs": [
        {
          "indexed": true,
          "internalType": "uint256",
          "name": "orderId",
          "type": "uint256"
        },
        {
          "indexed": true,
          "internalType": "address",
          "name": "buyer",
          "type": "address"
        },
        {
          "indexed": true,
          "internalType": "address",
          "name": "seller",
          "type": "address"
        },
        {
          "indexed": false,
          "internalType": "uint256",
          "name": "quantity",
          "type": "uint256"
        },
        {
          "indexed": false,
          "internalType": "uint256",
          "name": "totalPrice",
          "type": "uint256"
        }
      ],
      "name": "OrderFilled",
      "type": "event"
    },
    {
      "anonymous": false,
      "inputs": [
        {
          "indexed": true,
          "internalType": "uint256",
          "name": "orderId",
          "type": "uint256"
        },
        {
          "indexed": true,
          "internalType": "address",
          "name": "trader",
          "type": "address"
        },
        {
          "indexed": false,
          "internalType": "bool",
          "name": "isBuyOrder",
          "type": "bool"
        },
        {
          "indexed": false,
          "internalType": "uint256",
          "name": "quantity",
          "type": "uint256"
        },
        {
          "indexed": false,
          "internalType": "uint256",
          "name": "pricePerToken",
          "type": "uint256"
        }
      ],
      "name": "OrderPlaced",
      "type": "event"
    },
    {
      "inputs": [
        {
          "internalType": "uint256",
          "name": "orderId",
          "type": "uint256"
        }
      ],
      "name": "cancelOrder",
      "outputs": [],
      "stateMutability": "nonpayable",
      "type": "function"
    },
    {
      "inputs": [],
      "name": "collectedFees",
      "outputs": [
        {
          "internalType": "uint256",
          "name": "",
          "type": "uint256"
        }
      ],
      "stateMutability": "view",
      "type": "function"
    },
    {
      "inputs": [
        {
          "internalType": "uint256",
          "name": "orderId",
          "type": "uint256"
        },
        {
          "internalType": "uint256",
          "name": "quantity",
          "type": "uint256"
        }
      ],
      "name": "fillOrder",
      "outputs": [],
      "stateMutability": "payable",
      "type": "function"
    },
    {
      "inputs": [],
      "name": "getOrderCount",
      "outputs": [
        {
          "internalType": "uint256",
          "name": "",
          "type": "uint256"
        }
      ],
      "stateMutability": "view",
      "type": "function"
    },
    {
      "inputs": [],
      "name": "nextOrderId",
      "outputs": [
        {
          "internalType": "uint256",
          "name": "",
          "type": "uint256"
        }
      ],
      "stateMutability": "view",
      "type": "function"
    },
    {
      "inputs": [
        {
          "internalType": "uint256",
          "name": "",
          "type": "uint256"
        }
      ],
      "name": "orders",
      "outputs": [
        {
          "internalType": "uint256",
          "name": "id",
          "type": "uint256"
        },
        {
          "internalType": "address",
          "name": "trader",
          "type": "address"
        },
        {
          "internalType": "bool",
          "name": "isBuyOrder",
          "type": "bool"
        },
        {
          "internalType": "uint256",
          "name": "quantity",
          "type": "uint256"
        },
        {
          "internalType": "uint256",
          "name": "pricePerToken",
          "type": "uint256"
        },
        {
          "internalType": "uint256",
          "name": "filled",
          "type": "uint256"
        },
        {
          "internalType": "bool",
          "name": "active",
          "type": "bool"
        },
        {
          "internalType": "uint256",
          "name": "timestamp",
          "type": "uint256"
        }
      ],
      "stateMutability": "view",
      "type": "function"
    },
    {
      "inputs": [],
      "name": "owner",
      "outputs": [
        {
          "internalType": "address",
          "name": "",
          "type": "address"
        }
      ],
      "stateMutability": "view",
      "type": "function"
    },
    {
      "inputs": [
        {
          "internalType": "uint256",
          "name": "quantity",
          "type": "uint256"
        },
        {
          "internalType": "uint256",
          "name": "pricePerToken",
          "type": "uint256"
        }
      ],
      "name": "placeBuyOrder",
      "outputs": [],
      "stateMutability": "payable",
      "type": "function"
    },
    {
      "inputs": [
        {
          "internalType": "uint256",
          "name": "quantity",
          "type": "uint256"
        },
        {
          "internalType": "uint256",
          "name": "pricePerToken",
          "type": "uint256"
        }
      ],
      "name": "placeSellOrder",
      "outputs": [],
      "stateMutability": "nonpayable",
      "type": "function"
    },
    {
      "inputs": [
        {
          "internalType": "uint256",
          "name": "_basisPoints",
          "type": "uint256"
        }
      ],
      "name": "setTradingFee",
      "outputs": [],
      "stateMutability": "nonpayable",
      "type": "function"
    },
    {
      "inputs": [],
      "name": "tokenContract",
      "outputs": [
        {
          "internalType": "address",
          "name": "",
          "type": "address"
        }
      ],
      "stateMutability": "view",
      "type": "function"
    },
    {
      "inputs": [],
      "name": "tradingFeePercent",
      "outputs": [
        {
          "internalType": "uint256",
          "name": "",
          "type": "uint256"
        }
      ],
      "stateMutability": "view",
      "type": "function"
    },
    {
      "inputs": [],
      "name": "withdrawFees",
      "outputs": [],
      "stateMutability": "nonpayable",
      "type": "function"
    }
  ],
  "bytecode": "0x6080604052603260025534801561001557600080fd5b5060405161163338038061163383398101604081905261003491610067565b60008054336001600160a01b031991821617909155600180549091166001600160a01b0392909216919091179055610097565b60006020828403121561007957600080fd5b81516001600160a01b038116811461009057600080fd5b9392505050565b61158d806100a66000396000f3fe6080604052600436106100c25760003560e01c80638da5cb5b1161007f578063a85c38ef11610059578063a85c38ef146101e0578063b0d54bcf14610249578063c37dfc5b14610269578063ee36d4ab1461027c57600080fd5b80638da5cb5b1461018a5780639003adfe146101aa578063a4406bcd146101c057600080fd5b80632a324027146100c75780632a58b330146100f0578063476343ee14610106578063514fcac71461011d57806355a373d61461013d5780638d0a5fbb14610175575b600080fd5b3480156100d357600080fd5b506100dd60025481565b6040519081526020015b60405180910390f35b3480156100fc57600080fd5b506100dd60055481565b34801561011257600080fd5b5061011b61028f565b005b34801561012957600080fd5b5061011b6101383660046113ff565b6103ca565b34801561014957600080fd5b5060015461015d906001600160a01b031681565b6040516001600160a01b0390911681526020016100e7565b34801561018157600080fd5b506004546100dd565b34801561019657600080fd5b5060005461015d906001600160a01b031681565b3480156101b657600080fd5b506100dd60035481565b3480156101cc57600080fd5b5061011b6101db366004611418565b610607565b3480156101ec57600080fd5b506102006101fb3660046113ff565b61094c565b604080519889526001600160a01b039097166020890152941515958701959095526060860192909252608085015260a084015290151560c083015260e0820152610100016100e7565b34801561025557600080fd5b5061011b6102643660046113ff565b6109b3565b61011b610277366004611418565b610a5b565b61011b61028a366004611418565b6110bb565b6000546001600160a01b031633146102e55760405162461bcd60e51b815260206004820152601460248201527327b93232b92137b7b59d103737ba1037bbb732b960611b60448201526064015b60405180910390fd5b6003805460009182905581546040519192916001600160a01b039091169083908381818185875af1925050503d806000811461033d576040519150601f19603f3d011682016040523d82523d6000602084013e610342565b606091505b50509050806103935760405162461bcd60e51b815260206004820152601c60248201527f4f72646572426f6f6b3a207769746864726177616c206661696c65640000000060448201526064016102dc565b6040518281527f860c0aa5520013080c2f65981705fcdea474d9f7c3daf954656ed5e65d692d1f9060200160405180910390a15050565b60045481106104165760405162461bcd60e51b815260206004820152601860248201527727b93232b92137b7b59d1034b73b30b634b21037b93232b960411b60448201526064016102dc565b60006004828154811061042b5761042b61143a565b600091825260209091206001600790920201908101549091506001600160a01b0316331461049b5760405162461bcd60e51b815260206004820152601960248201527f4f72646572426f6f6b3a206e6f7420796f7572206f726465720000000000000060448201526064016102dc565b600581015460ff166104ef5760405162461bcd60e51b815260206004820152601b60248201527f4f72646572426f6f6b3a20616c726561647920696e616374697665000000000060448201526064016102dc565b60058101805460ff191690556001810154600160a01b900460ff16156105d8576000816004015482600201546105259190611466565b905060008260030154826105399190611479565b604051909150600090339083908381818185875af1925050503d806000811461057e576040519150601f19603f3d011682016040523d82523d6000602084013e610583565b606091505b50509050806105d45760405162461bcd60e51b815260206004820152601860248201527f4f72646572426f6f6b3a20726566756e64206661696c6564000000000000000060448201526064016102dc565b5050505b60405182907f61b9399f2f0f32ca39ce8d7be32caed5ec22fe07a6daba3a467ed479ec60658290600090a25050565b600154604051631990731960e21b81523360048201526001600160a01b0390911690636641cc6490602401602060405180830381865afa15801561064f573d6000803e3d6000fd5b505050506040513d601f19601f820116820180604052508101906106739190611490565b61068f5760405162461bcd60e51b81526004016102dc906114b9565b610698826113e5565b6001546040516370a0823160e01b81523360048201526001600160a01b03909116906370a0823190602401602060405180830381865afa1580156106e0573d6000803e3d6000fd5b505050506040513d601f19601f8201168201806040525081019061070491906114f0565b10156107525760405162461bcd60e51b815260206004820152601e60248201527f4f72646572426f6f6b3a20696e73756666696369656e7420746f6b656e73000060448201526064016102dc565b600580546000918261076383611509565b909155506040805161010081018252828152336020808301828152600084860181815260608087018c8152608088018c815260a08901858152600160c08b018181524260e08d0190815260048054938401815589529b517f8a35acfbc15ff81a39ae7d344fd709f28e8600b4aa8c65c6b64bfe7fe36bd19b60079093029283015597517f8a35acfbc15ff81a39ae7d344fd709f28e8600b4aa8c65c6b64bfe7fe36bd19c8201805497516001600160a01b039092166001600160a81b031990981697909717600160a01b911515919091021790955591517f8a35acfbc15ff81a39ae7d344fd709f28e8600b4aa8c65c6b64bfe7fe36bd19d850155517f8a35acfbc15ff81a39ae7d344fd709f28e8600b4aa8c65c6b64bfe7fe36bd19e840155517f8a35acfbc15ff81a39ae7d344fd709f28e8600b4aa8c65c6b64bfe7fe36bd19f83015592517f8a35acfbc15ff81a39ae7d344fd709f28e8600b4aa8c65c6b64bfe7fe36bd1a08201805460ff191691151591909117905594517f8a35acfbc15ff81a39ae7d344fd709f28e8600b4aa8c65c6b64bfe7fe36bd1a190950194909455845193845290830188905292820186905292935083917fa8d12dd5402d0aa9ccaa7a1346ef5a510e0c3ee938c13587bf17e59671b2ebee910160405180910390a3505050565b6004818154811061095c57600080fd5b600091825260209091206007909102018054600182015460028301546003840154600485015460058601546006909601549496506001600160a01b0384169560ff600160a01b909504851695939492939192169088565b6000546001600160a01b03163314610a045760405162461bcd60e51b815260206004820152601460248201527327b93232b92137b7b59d103737ba1037bbb732b960611b60448201526064016102dc565b6103e8811115610a565760405162461bcd60e51b815260206004820152601760248201527f4f72646572426f6f6b3a2066656520746f6f206869676800000000000000000060448201526064016102dc565b600255565b6004548210610aa75760405162461bcd60e51b815260206004820152601860248201527727b93232b92137b7b59d1034b73b30b634b21037b93232b960411b60448201526064016102dc565b600060048381548110610abc57610abc61143a565b60009182526020909120600790910201600581015490915060ff16610b235760405162461bcd60e51b815260206004820152601b60248201527f4f72646572426f6f6b3a206f72646572206e6f7420616374697665000000000060448201526064016102dc565b80600401548160020154610b379190611466565b821115610b865760405162461bcd60e51b815260206004820152601c60248201527f4f72646572426f6f6b3a206578636565647320617661696c61626c650000000060448201526064016102dc565b6001810154600160a01b900460ff1615610dc157600154604051631990731960e21b81523360048201526001600160a01b0390911690636641cc6490602401602060405180830381865afa158015610be2573d6000803e3d6000fd5b505050506040513d601f19601f82011682018060405250810190610c069190611490565b610c225760405162461bcd60e51b81526004016102dc906114b9565b6000816003015483610c349190611479565b60018054908401549192506001600160a01b03908116916323b872dd91339116610c5d876113e5565b6040516001600160e01b031960e086901b1681526001600160a01b03938416600482015292909116602483015260448201526064016020604051808303816000875af1158015610cb1573d6000803e3d6000fd5b505050506040513d601f19601f82011682018060405250810190610cd59190611490565b50604051600090339083908381818185875af1925050503d8060008114610d18576040519150601f19603f3d011682016040523d82523d6000602084013e610d1d565b606091505b5050905080610d6e5760405162461bcd60e51b815260206004820152601e60248201527f4f72646572426f6f6b3a20455448207472616e73666572206661696c6564000060448201526064016102dc565b6001830154604080518681526020810185905233926001600160a01b03169188917f88af4c696532bdbd05ad505c8c3f6c6dd786ab24777c70949ebb2a6ec2a3020d910160405180910390a45050611081565b600154604051631990731960e21b81523360048201526001600160a01b0390911690636641cc6490602401602060405180830381865afa158015610e09573d6000803e3d6000fd5b505050506040513d601f19601f82011682018060405250810190610e2d9190611490565b610e495760405162461bcd60e51b81526004016102dc906114b9565b6000816003015483610e5b9190611479565b9050600061271060025483610e709190611479565b610e7a9190611522565b9050610e868183611544565b341015610ed55760405162461bcd60e51b815260206004820152601b60248201527f4f72646572426f6f6b3a20696e73756666696369656e7420455448000000000060448201526064016102dc565b60018054908401546001600160a01b03918216916323b872dd911633610efa886113e5565b6040516001600160e01b031960e086901b1681526001600160a01b03938416600482015292909116602483015260448201526064016020604051808303816000875af1158015610f4e573d6000803e3d6000fd5b505050506040513d601f19601f82011682018060405250810190610f729190611490565b5060018301546040516000916001600160a01b03169084908381818185875af1925050503d8060008114610fc2576040519150601f19603f3d011682016040523d82523d6000602084013e610fc7565b606091505b50509050806110185760405162461bcd60e51b815260206004820152601e60248201527f4f72646572426f6f6b3a20455448207472616e73666572206661696c6564000060448201526064016102dc565b816003600082825461102a9190611544565b9091555050600184015460408051878152602081018690526001600160a01b0390921691339189917f88af4c696532bdbd05ad505c8c3f6c6dd786ab24777c70949ebb2a6ec2a3020d910160405180910390a45050505b818160040160008282546110959190611544565b909155505060028101546004820154106110b65760058101805460ff191690555b505050565b600154604051631990731960e21b81523360048201526001600160a01b0390911690636641cc6490602401602060405180830381865afa158015611103573d6000803e3d6000fd5b505050506040513d601f19601f820116820180604052508101906111279190611490565b6111435760405162461bcd60e51b81526004016102dc906114b9565b600061114f8284611479565b90506000612710600254836111649190611479565b61116e9190611522565b905061117a8183611544565b3410156111c95760405162461bcd60e51b815260206004820152601b60248201527f4f72646572426f6f6b3a20696e73756666696369656e7420455448000000000060448201526064016102dc565b60058054600091826111da83611509565b90915550604080516101008101825282815233602082019081526001928201838152606083018a8152608084018a8152600060a0860181815260c087018881524260e08901908152600480549a8b018155845297517f8a35acfbc15ff81a39ae7d344fd709f28e8600b4aa8c65c6b64bfe7fe36bd19b6007909a02998a015595517f8a35acfbc15ff81a39ae7d344fd709f28e8600b4aa8c65c6b64bfe7fe36bd19c8901805496516001600160a01b039092166001600160a81b031990971696909617600160a01b911515919091021790945591517f8a35acfbc15ff81a39ae7d344fd709f28e8600b4aa8c65c6b64bfe7fe36bd19d870155517f8a35acfbc15ff81a39ae7d344fd709f28e8600b4aa8c65c6b64bfe7fe36bd19e86015590517f8a35acfbc15ff81a39ae7d344fd709f28e8600b4aa8c65c6b64bfe7fe36bd19f85015590517f8a35acfbc15ff81a39ae7d344fd709f28e8600b4aa8c65c6b64bfe7fe36bd1a08401805460ff191691151591909117905590517f8a35acfbc15ff81a39ae7d344fd709f28e8600b4aa8c65c6b64bfe7fe36bd1a190920191909155600380549293508492909190611393908490611544565b9091555050604080516001815260208101879052908101859052339082907fa8d12dd5402d0aa9ccaa7a1346ef5a510e0c3ee938c13587bf17e59671b2ebee9060600160405180910390a35050505050565b60006113f982670de0b6b3a7640000611479565b92915050565b60006020828403121561141157600080fd5b5035919050565b6000806040838503121561142b57600080fd5b50508035926020909101359150565b634e487b7160e01b600052603260045260246000fd5b634e487b7160e01b600052601160045260246000fd5b818103818111156113f9576113f9611450565b80820281158282048414176113f9576113f9611450565b6000602082840312156114a257600080fd5b815180151581146114b257600080fd5b9392505050565b60208082526017908201527f4f72646572426f6f6b3a204b5943207265717569726564000000000000000000604082015260600190565b60006020828403121561150257600080fd5b5051919050565b60006001820161151b5761151b611450565b5060010190565b60008261153f57634e487b7160e01b600052601260045260246000fd5b500490565b808201808211156113f9576113f961145056fea2646970667358221220832b527f9b64bc0c28962de66dbe3d565dcc6002d16b88d17406afc6007dfd9d64736f6c63430008140033",
  "linkReferences": {},
  "deployedLinkReferences": {}
}