{
  "_format": "hh-sol-artifact-1",
  "contractName": "IncomeDistributor",
  "sourceName": "contracts/IncomeDistributor.sol",
  "abi": [
    {
      "inputs": [
        {
          "internalType": "address",
          "name": "_tokenContract",
          "type": "address"
        }
      ],
      "stateMutability": "nonpayable",
      "type": "constructor"
    },
    {
      "anonymous": false,
      "inputs": [
        {
          "indexed": true,
          "internalType": "uint256",
          "name": "distributionId",
          "type": "uint256"
        },
        {
          "indexed": true,
          "internalType": "address",
          "name": "investor",
          "type": "address"
        },
        {
          "indexed": false,
          "internalType": "uint256",
          "name": "amount",
          "type": "uint256"
        }
      ],
      "name": "IncomeClaimed",
      "type": "event"
    },
    {
      "anonymous": false,
      "inputs": [
        {
          "indexed": true,
          "internalType": "uint256",
          "name": "distributionId",
          "type": "uint256"
        },
        {
          "indexed": false,
          "internalType": "uint256",
          "name": "amount",
          "type": "uint256"
        },
        {
          "indexed": false,
          "internalType": "string",
          "name": "description",
          "type": "string"
        }
      ],
      "name": "IncomeDeposited",
      "type": "event"
    },
    {
      "inputs": [
        {
          "internalType": "uint256",
          "name": "distributionId",
          "type": "uint256"
        }
      ],
      "name": "claimIncome",
      "outputs": [],
      "stateMutability": "nonpayable",
      "type": "function"
    },
    {
      "inputs": [
        {
          "internalType": "uint256",
          "name": "",
          "type": "uint256"
        },
        {
          "internalType": "address",
          "name": "",
          "type": "address"
        }
      ],
      "name": "claimed",
      "outputs": [
        {
          "internalType": "bool",
          "name": "",
          "type": "bool"
        }
      ],
      "stateMutability": "view",
      "type": "function"
    },
    {
      "inputs": [
        {
          "internalType": "string",
          "name": "description",
          "type": "string"
        }
      ],
      "name": "depositIncome",
      "outputs": [],
      "stateMutability": "payable",
      "type": "function"
    },
    {
      "inputs": [
        {
          "internalType": "uint256",
          "name": "",
          "type": "uint256"
        }
      ],
      "name": "distributions",
      "outputs": [
        {
          "internalType": "uint256",
          "name": "totalAmount",
          "type": "uint256"
        },
        {
          "internalType": "uint256",
          "name": "timestamp",
          "type": "uint256"
        },
        {
          "internalType": "uint256",
          "name": "totalSupplyAtTime",
          "type": "uint256"
        },
        {
          "internalType": "string",
          "name": "description",
          "type": "string"
        }
      ],
      "stateMutability": "view",
      "type": "function"
    },
    {
      "inputs": [
        {
          "internalType": "uint256",
          "name": "distributionId",
          "type": "uint256"
        },
        {
          "internalType": "address",
          "name": "investor",
          "type": "address"
        }
      ],
      "name": "getClaimableAmount",
      "outputs": [
        {
          "internalType": "uint256",
          "name": "",
          "type": "uint256"
        }
      ],
      "stateMutability": "view",
      "type": "function"
    },
    {
      "inputs": [],
      "name": "getDistributionCount",
      "outputs": [
        {
          "internalType": "uint256",
          "name": "",
          "type": "uint256"
        }
      ],
      "stateMutability": "view",
      "type": "function"
    },
    {
      "inputs": [],
      "name": "owner",
      "outputs": [
        {
          "internalType": "address",
          "name": "",
          "type": "address"
        }
      ],
      "stateMutability": "view",
      "type": "function"
    },
    {
      "inputs": [],
      "name": "tokenContract",
      "outputs": [
        {
          "internalType": "address",
          "name": "",
          "type": "address"
        }
      ],
      "stateMutability": "view",
      "type": "function"
    }
  ],
  "bytecode": "0x608060405234801561001057600080fd5b50604051610e5f380380610e5f83398101604081905261002f91610062565b60008054336001600160a01b031991821617909155600180549091166001600160a01b0392909216919091179055610092565b60006020828403121561007457600080fd5b81516001600160a01b038116811461008b57600080fd5b9392505050565b610dbe806100a16000396000f3fe60806040526004361061007b5760003560e01c80634487d3df1161004e5780634487d3df1461012457806355a373d61461015457806378c5195e1461018c5780638da5cb5b146101ac57600080fd5b8063120aa877146100805780631441546e146100d05780632dabc5fc146100e557806342c9160514610105575b600080fd5b34801561008c57600080fd5b506100bb61009b366004610a52565b600360209081526000928352604080842090915290825290205460ff1681565b60405190151581526020015b60405180910390f35b6100e36100de366004610a8e565b6101cc565b005b3480156100f157600080fd5b506100e3610100366004610b00565b6103cf565b34801561011157600080fd5b506002545b6040519081526020016100c7565b34801561013057600080fd5b5061014461013f366004610b00565b6107b4565b6040516100c79493929190610b19565b34801561016057600080fd5b50600154610174906001600160a01b031681565b6040516001600160a01b0390911681526020016100c7565b34801561019857600080fd5b506101166101a7366004610a52565b61087c565b3480156101b857600080fd5b50600054610174906001600160a01b031681565b6000546001600160a01b0316331461022b5760405162461bcd60e51b815260206004820152601c60248201527f496e636f6d654469737472696275746f723a206e6f74206f776e65720000000060448201526064015b60405180910390fd5b6000341161027b5760405162461bcd60e51b815260206004820152601e60248201527f496e636f6d654469737472696275746f723a207a65726f20616d6f756e7400006044820152606401610222565b60028054604080516080810182523481524260208083019190915260015483516318160ddd60e01b8152845195969593948501936001600160a01b03909216926318160ddd926004808401938290030181865afa1580156102e0573d6000803e3d6000fd5b505050506040513d601f19601f820116820180604052508101906103049190610b7d565b815260200185858080601f01602080910402602001604051908101604052809392919081815260200183838082843760009201829052509390945250508354600181810186559482526020918290208451600490920201908155908301519381019390935550604081015160028301556060810151909190600382019061038b9082610c35565b505050807f298a82860699031727d1bf8a607ec42d9c496cae1f2762d56954d576c211b1fe3485856040516103c293929190610cf5565b60405180910390a2505050565b60025481106104205760405162461bcd60e51b815260206004820152601d60248201527f496e636f6d654469737472696275746f723a20696e76616c69642049440000006044820152606401610222565b600081815260036020908152604080832033845290915290205460ff16156104955760405162461bcd60e51b815260206004820152602260248201527f496e636f6d654469737472696275746f723a20616c726561647920636c61696d604482015261195960f21b6064820152608401610222565b6000600282815481106104aa576104aa610d2b565b90600052602060002090600402016040518060800160405290816000820154815260200160018201548152602001600282015481526020016003820180546104f190610bac565b80601f016020809104026020016040519081016040528092919081815260200182805461051d90610bac565b801561056a5780601f1061053f5761010080835404028352916020019161056a565b820191906000526020600020905b81548152906001019060200180831161054d57829003601f168201915b5050509190925250506001546040516370a0823160e01b81523360048201529293506000926001600160a01b0390911691506370a0823190602401602060405180830381865afa1580156105c2573d6000803e3d6000fd5b505050506040513d601f19601f820116820180604052508101906105e69190610b7d565b9050600081116106425760405162461bcd60e51b815260206004820152602160248201527f496e636f6d654469737472696275746f723a206e6f20746f6b656e732068656c6044820152601960fa1b6064820152608401610222565b600082604001518284600001516106599190610d41565b6106639190610d66565b9050600081116106b55760405162461bcd60e51b815260206004820152601d60248201527f496e636f6d654469737472696275746f723a207a65726f2073686172650000006044820152606401610222565b6000848152600360209081526040808320338085529252808320805460ff191660011790555183908381818185875af1925050503d8060008114610715576040519150601f19603f3d011682016040523d82523d6000602084013e61071a565b606091505b50509050806107765760405162461bcd60e51b815260206004820152602260248201527f496e636f6d654469737472696275746f723a207472616e73666572206661696c604482015261195960f21b6064820152608401610222565b604051828152339086907f37c700384a18d5461c1c9b81b088e7b9f6e97b2cd355c61c9d9fac3e18fb14d19060200160405180910390a35050505050565b600281815481106107c457600080fd5b90600052602060002090600402016000915090508060000154908060010154908060020154908060030180546107f990610bac565b80601f016020809104026020016040519081016040528092919081815260200182805461082590610bac565b80156108725780601f1061084757610100808354040283529160200191610872565b820191906000526020600020905b81548152906001019060200180831161085557829003601f168201915b5050505050905084565b600254600090831061089057506000610a4c565b60008381526003602090815260408083206001600160a01b038616845290915290205460ff16156108c357506000610a4c565b6000600284815481106108d8576108d8610d2b565b906000526020600020906004020160405180608001604052908160008201548152602001600182015481526020016002820154815260200160038201805461091f90610bac565b80601f016020809104026020016040519081016040528092919081815260200182805461094b90610bac565b80156109985780601f1061096d57610100808354040283529160200191610998565b820191906000526020600020905b81548152906001019060200180831161097b57829003601f168201915b5050509190925250506001546040516370a0823160e01b81526001600160a01b03878116600483015293945060009390911691506370a0823190602401602060405180830381865afa1580156109f2573d6000803e3d6000fd5b505050506040513d601f19601f82011682018060405250810190610a169190610b7d565b905080600003610a2b57600092505050610a4c565b60408201518251610a3d908390610d41565b610a479190610d66565b925050505b92915050565b60008060408385031215610a6557600080fd5b8235915060208301356001600160a01b0381168114610a8357600080fd5b809150509250929050565b60008060208385031215610aa157600080fd5b823567ffffffffffffffff80821115610ab957600080fd5b818501915085601f830112610acd57600080fd5b813581811115610adc57600080fd5b866020828501011115610aee57600080fd5b60209290920196919550909350505050565b600060208284031215610b1257600080fd5b5035919050565b84815260006020858184015284604084015260806060840152835180608085015260005b81811015610b595785810183015185820160a001528201610b3d565b50600060a0828601015260a0601f19601f8301168501019250505095945050505050565b600060208284031215610b8f57600080fd5b5051919050565b634e487b7160e01b600052604160045260246000fd5b600181811c90821680610bc057607f821691505b602082108103610be057634e487b7160e01b600052602260045260246000fd5b50919050565b601f821115610c3057600081815260208120601f850160051c81016020861015610c0d5750805b601f850160051c820191505b81811015610c2c57828155600101610c19565b5050505b505050565b815167ffffffffffffffff811115610c4f57610c4f610b96565b610c6381610c5d8454610bac565b84610be6565b602080601f831160018114610c985760008415610c805750858301515b600019600386901b1c1916600185901b178555610c2c565b600085815260208120601f198616915b82811015610cc757888601518255948401946001909101908401610ca8565b5085821015610ce55787850151600019600388901b60f8161c191681555b5050505050600190811b01905550565b83815260406020820152816040820152818360608301376000818301606090810191909152601f909201601f1916010192915050565b634e487b7160e01b600052603260045260246000fd5b8082028115828204841417610a4c57634e487b7160e01b600052601160045260246000fd5b600082610d8357634e487b7160e01b600052601260045260246000fd5b50049056fea2646970667358221220a7a1b17e07670972ed28ea1d030d14d00818116fbe274bbd275620aad087ed8164736f6c63430008140033",
  "linkReferences": {},
  "deployedLinkReferences": {}
}