{
  "_format": "hh-sol-artifact-1",
  "contractName": "RWAToken",
  "sourceName": "contracts/RWAToken.sol",
  "abi": [
    {
      "inputs": [
        {
          "internalType": "string",
          "name": "_name",
          "type": "string"
        },
        {
          "internalType": "string",
          "name": "_symbol",
          "type": "string"
        },
        {
          "internalType": "uint256",
          "name": "_totalSupply",
          "type": "uint256"
        },
        {
          "internalType": "uint256",
          "name": "_tokenPriceWei",
          "type": "uint256"
        }
      ],
      "stateMutability": "nonpayable",
      "type": "constructor"
    },
    {
      "anonymous": false,
      "inputs": [
        {
          "indexed": true,
          "internalType": "address",
          "name": "owner",
          "type": "address"
        },
        {
          "indexed": true,
          "internalType": "address",
          "name": "spender",
          "type": "address"
        },
        {
          "indexed": false,
          "internalType": "uint256",
          "name": "value",
          "type": "uint256"
        }
      ],
      "name": "Approval",
      "type": "event"
    },
    {
      "anonymous": false,
      "inputs": [
        {
          "indexed": true,
          "internalType": "address",
          "name": "to",
          "type": "address"
        },
        {
          "indexed": false,
          "internalType": "uint256",
          "name": "amount",
          "type": "uint256"
        }
      ],
      "name": "FundsWithdrawn",
      "type": "event"
    },
    {
      "anonymous": false,
      "inputs": [
        {
          "indexed": true,
          "internalType": "address",
          "name": "account",
          "type": "address"
        },
        {
          "indexed": false,
          "internalType": "bool",
          "name": "status",
          "type": "bool"
        }
      ],
      "name": "KYCStatusUpdated",
      "type": "event"
    },
    {
      "anonymous": false,
      "inputs": [
        {
          "indexed": true,
          "internalType": "address",
          "name": "to",
          "type": "address"
        },
        {
          "indexed": false,
          "internalType": "uint256",
          "name": "amount",
          "type": "uint256"
        }
      ],
      "name": "Mint",
      "type": "event"
    },
    {
      "anonymous": false,
      "inputs": [
        {
          "indexed": false,
          "internalType": "uint256",
          "name": "oldPrice",
          "type": "uint256"
        },
        {
          "indexed": false,
          "internalType": "uint256",
          "name": "newPrice",
          "type": "uint256"
        }
      ],
      "name": "TokenPriceUpdated",
      "type": "event"
    },
    {
      "anonymous": false,
      "inputs": [
        {
          "indexed": true,
          "internalType": "address",
          "name": "buyer",
          "type": "address"
        },
        {
          "indexed": false,
          "internalType": "uint256",
          "name": "tokenAmount",
          "type": "uint256"
        },
        {
          "indexed": false,
          "internalType": "uint256",
          "name": "ethPaid",
          "type": "uint256"
        }
      ],
      "name": "TokensPurchased",
      "type": "event"
    },
    {
      "anonymous": false,
      "inputs": [
        {
          "indexed": false,
          "internalType": "bool",
          "name": "enabled",
          "type": "bool"
        }
      ],
      "name": "TradingStatusChanged",
      "type": "event"
    },
    {
      "anonymous": false,
      "inputs": [
        {
          "indexed": true,
          "internalType": "address",
          "name": "from",
          "type": "address"
        },
        {
          "indexed": true,
          "internalType": "address",
          "name": "to",
          "type": "address"
        },
        {
          "indexed": false,
          "internalType": "uint256",
          "name": "value",
          "type": "uint256"
        }
      ],
      "name": "Transfer",
      "type": "event"
    },
    {
      "inputs": [
        {
          "internalType": "address",
          "name": "",
          "type": "address"
        },
        {
          "internalType": "address",
          "name": "",
          "type": "address"
        }
      ],
      "name": "allowance",
      "outputs": [
        {
          "internalType": "uint256",
          "name": "",
          "type": "uint256"
        }
      ],
      "stateMutability": "view",
      "type": "function"
    },
    {
      "inputs": [
        {
          "internalType": "address",
          "name": "spender",
          "type": "address"
        },
        {
          "internalType": "uint256",
          "name": "amount",
          "type": "uint256"
        }
      ],
      "name": "approve",
      "outputs": [
        {
          "internalType": "bool",
          "name": "",
          "type": "bool"
        }
      ],
      "stateMutability": "nonpayable",
      "type": "function"
    },
    {
      "inputs": [],
      "name": "availableTokens",
      "outputs": [
        {
          "internalType": "uint256",
          "name": "",
          "type": "uint256"
        }
      ],
      "stateMutability": "view",
      "type": "function"
    },
    {
      "inputs": [
        {
          "internalType": "address",
          "name": "",
          "type": "address"
        }
      ],
      "name": "balanceOf",
      "outputs": [
        {
          "internalType": "uint256",
          "name": "",
          "type": "uint256"
        }
      ],
      "stateMutability": "view",
      "type": "function"
    },
    {
      "inputs": [
        {
          "internalType": "address[]",
          "name": "accounts",
          "type": "address[]"
        },
        {
          "internalType": "bool",
          "name": "status",
          "type": "bool"
        }
      ],
      "name": "batchSetKYCStatus",
      "outputs": [],
      "stateMutability": "nonpayable",
      "type": "function"
    },
    {
      "inputs": [
        {
          "internalType": "uint256",
          "name": "quantity",
          "type": "uint256"
        }
      ],
      "name": "buyTokens",
      "outputs": [],
      "stateMutability": "payable",
      "type": "function"
    },
    {
      "inputs": [],
      "name": "decimals",
      "outputs": [
        {
          "internalType": "uint8",
          "name": "",
          "type": "uint8"
        }
      ],
      "stateMutability": "view",
      "type": "function"
    },
    {
      "inputs": [
        {
          "internalType": "address",
          "name": "",
          "type": "address"
        }
      ],
      "name": "kycApproved",
      "outputs": [
        {
          "internalType": "bool",
          "name": "",
          "type": "bool"
        }
      ],
      "stateMutability": "view",
      "type": "function"
    },
    {
      "inputs": [
        {
          "internalType": "address",
          "name": "to",
          "type": "address"
        },
        {
          "internalType": "uint256",
          "name": "amount",
          "type": "uint256"
        }
      ],
      "name": "mint",
      "outputs": [],
      "stateMutability": "nonpayable",
      "type": "function"
    },
    {
      "inputs": [],
      "name": "name",
      "outputs": [
        {
          "internalType": "string",
          "name": "",
          "type": "string"
        }
      ],
      "stateMutability": "view",
      "type": "function"
    },
    {
      "inputs": [],
      "name": "owner",
      "outputs": [
        {
          "internalType": "address",
          "name": "",
          "type": "address"
        }
      ],
      "stateMutability": "view",
      "type": "function"
    },
    {
      "inputs": [
        {
          "internalType": "address",
          "name": "account",
          "type": "address"
        },
        {
          "internalType": "bool",
          "name": "status",
          "type": "bool"
        }
      ],
      "name": "setKYCStatus",
      "outputs": [],
      "stateMutability": "nonpayable",
      "type": "function"
    },
    {
      "inputs": [
        {
          "internalType": "uint256",
          "name": "_newPriceWei",
          "type": "uint256"
        }
      ],
      "name": "setTokenPrice",
      "outputs": [],
      "stateMutability": "nonpayable",
      "type": "function"
    },
    {
      "inputs": [
        {
          "internalType": "bool",
          "name": "_enabled",
          "type": "bool"
        }
      ],
      "name": "setTradingEnabled",
      "outputs": [],
      "stateMutability": "nonpayable",
      "type": "function"
    },
    {
      "inputs": [
        {
          "internalType": "bool",
          "name": "_restricted",
          "type": "bool"
        }
      ],
      "name": "setTransferRestricted",
      "outputs": [],
      "stateMutability": "nonpayable",
      "type": "function"
    },
    {
      "inputs": [],
      "name": "symbol",
      "outputs": [
        {
          "internalType": "string",
          "name": "",
          "type": "string"
        }
      ],
      "stateMutability": "view",
      "type": "function"
    },
    {
      "inputs": [],
      "name": "tokenPriceWei",
      "outputs": [
        {
          "internalType": "uint256",
          "name": "",
          "type": "uint256"
        }
      ],
      "stateMutability": "view",
      "type": "function"
    },
    {
      "inputs": [],
      "name": "totalSupply",
      "outputs": [
        {
          "internalType": "uint256",
          "name": "",
          "type": "uint256"
        }
      ],
      "stateMutability": "view",
      "type": "function"
    },
    {
      "inputs": [],
      "name": "tradingEnabled",
      "outputs": [
        {
          "internalType": "bool",
          "name": "",
          "type": "bool"
        }
      ],
      "stateMutability": "view",
      "type": "function"
    },
    {
      "inputs": [
        {
          "internalType": "address",
          "name": "to",
          "type": "address"
        },
        {
          "internalType": "uint256",
          "name": "amount",
          "type": "uint256"
        }
      ],
      "name": "transfer",
      "outputs": [
        {
          "internalType": "bool",
          "name": "",
          "type": "bool"
        }
      ],
      "stateMutability": "nonpayable",
      "type": "function"
    },
    {
      "inputs": [
        {
          "internalType": "address",
          "name": "from",
          "type": "address"
        },
        {
          "internalType": "address",
          "name": "to",
          "type": "address"
        },
        {
          "internalType": "uint256",
          "name": "amount",
          "type": "uint256"
        }
      ],
      "name": "transferFrom",
      "outputs": [
        {
          "internalType": "bool",
          "name": "",
          "type": "bool"
        }
      ],
      "stateMutability": "nonpayable",
      "type": "function"
    },
    {
      "inputs": [],
      "name": "transferRestricted",
      "outputs": [
        {
          "internalType": "bool",
          "name": "",
          "type": "bool"
        }
      ],
      "stateMutability": "view",
      "type": "function"
    },
    {
      "inputs": [],
      "name": "withdrawFunds",
      "outputs": [],
      "stateMutability": "nonpayable",
      "type": "function"
    },
    {
      "stateMutability": "payable",
      "type": "receive"
    }
  ],
  "bytecode": "0x60806040526002805460ff191660121790556009805461ffff19166101001790553480156200002d57600080fd5b5060405162001b0138038062001b018339810160408190526200005091620001e0565b60006200005e8582620002e9565b5060016200006d8482620002e9565b50600480546001600160a01b031916331790556005819055600254620000989060ff16600a620004ca565b620000a49083620004e2565b60038181553060008181526006602090815260408083209590955533825260089052838120805460ff191660011790559154925190927fddf252ad1be2c89b69c2b068fc378daa952ba7f163c4a11628f55a4df523b3ef916200010991815260200190565b60405180910390a350505050620004fc565b634e487b7160e01b600052604160045260246000fd5b600082601f8301126200014357600080fd5b81516001600160401b03808211156200016057620001606200011b565b604051601f8301601f19908116603f011681019082821181831017156200018b576200018b6200011b565b81604052838152602092508683858801011115620001a857600080fd5b600091505b83821015620001cc5785820183015181830184015290820190620001ad565b600093810190920192909252949350505050565b60008060008060808587031215620001f757600080fd5b84516001600160401b03808211156200020f57600080fd5b6200021d8883890162000131565b955060208701519150808211156200023457600080fd5b50620002438782880162000131565b604087015160609097015195989097509350505050565b600181811c908216806200026f57607f821691505b6020821081036200029057634e487b7160e01b600052602260045260246000fd5b50919050565b601f821115620002e457600081815260208120601f850160051c81016020861015620002bf5750805b601f850160051c820191505b81811015620002e057828155600101620002cb565b5050505b505050565b81516001600160401b038111156200030557620003056200011b565b6200031d816200031684546200025a565b8462000296565b602080601f8311600181146200035557600084156200033c5750858301515b600019600386901b1c1916600185901b178555620002e0565b600085815260208120601f198616915b82811015620003865788860151825594840194600190910190840162000365565b5085821015620003a55787850151600019600388901b60f8161c191681555b5050505050600190811b01905550565b634e487b7160e01b600052601160045260246000fd5b600181815b808511156200040c578160001904821115620003f057620003f0620003b5565b80851615620003fe57918102915b93841c9390800290620003d0565b509250929050565b6000826200042557506001620004c4565b816200043457506000620004c4565b81600181146200044d5760028114620004585762000478565b6001915050620004c4565b60ff8411156200046c576200046c620003b5565b50506001821b620004c4565b5060208310610133831016604e8410600b84101617156200049d575081810a620004c4565b620004a98383620003cb565b8060001904821115620004c057620004c0620003b5565b0290505b92915050565b6000620004db60ff84168362000414565b9392505050565b8082028115828204841417620004c457620004c4620003b5565b6115f5806200050c6000396000f3fe6080604052600436106101445760003560e01c80634ada218b116100b65780638da5cb5b1161006f5780638da5cb5b1461038257806395d89b41146103ba578063a3f569ae146103cf578063a9059cbb146103ef578063c2e5ec041461040f578063dd62ed3e1461042f57600080fd5b80634ada218b146102b65780636641cc64146102d057806369bb4dc2146103005780636a61e5fc1461031557806370a082311461033557806370bb0a161461036257600080fd5b806323b872dd1161010857806323b872dd1461020357806324600fc314610223578063313ce567146102385780633610724e1461026457806340c10f191461027757806348709a931461029757600080fd5b806305d0f15b1461015057806306fdde0314610179578063095ea7b31461019b5780630c371cea146101cb57806318160ddd146101ed57600080fd5b3661014b57005b600080fd5b34801561015c57600080fd5b5061016660055481565b6040519081526020015b60405180910390f35b34801561018557600080fd5b5061018e610467565b604051610170919061106d565b3480156101a757600080fd5b506101bb6101b63660046110d7565b6104f5565b6040519015158152602001610170565b3480156101d757600080fd5b506101eb6101e6366004611111565b610562565b005b3480156101f957600080fd5b5061016660035481565b34801561020f57600080fd5b506101bb61021e366004611195565b610677565b34801561022f57600080fd5b506101eb6108e2565b34801561024457600080fd5b506002546102529060ff1681565b60405160ff9091168152602001610170565b6101eb6102723660046111d1565b6109da565b34801561028357600080fd5b506101eb6102923660046110d7565b610be4565b3480156102a357600080fd5b506009546101bb90610100900460ff1681565b3480156102c257600080fd5b506009546101bb9060ff1681565b3480156102dc57600080fd5b506101bb6102eb3660046111ea565b60086020526000908152604090205460ff1681565b34801561030c57600080fd5b50610166610cfe565b34801561032157600080fd5b506101eb6103303660046111d1565b610d31565b34801561034157600080fd5b506101666103503660046111ea565b60066020526000908152604090205481565b34801561036e57600080fd5b506101eb61037d36600461120c565b610d9c565b34801561038e57600080fd5b506004546103a2906001600160a01b031681565b6040516001600160a01b039091168152602001610170565b3480156103c657600080fd5b5061018e610de0565b3480156103db57600080fd5b506101eb6103ea366004611227565b610ded565b3480156103fb57600080fd5b506101bb61040a3660046110d7565b610e76565b34801561041b57600080fd5b506101eb61042a36600461120c565b610ffc565b34801561043b57600080fd5b5061016661044a36600461125a565b600760209081526000928352604080842090915290825290205481565b6000805461047490611284565b80601f01602080910402602001604051908101604052809291908181526020018280546104a090611284565b80156104ed5780601f106104c2576101008083540402835291602001916104ed565b820191906000526020600020905b8154815290600101906020018083116104d057829003601f168201915b505050505081565b3360008181526007602090815260408083206001600160a01b038716808552925280832085905551919290917f8c5be1e5ebec7d5bd14f71427d1e84f3dd0314c0f7b2291e5b200ac8c7c3b925906105509086815260200190565b60405180910390a35060015b92915050565b6004546001600160a01b031633146105955760405162461bcd60e51b815260040161058c906112be565b60405180910390fd5b60005b828110156106715781600860008686858181106105b7576105b76112ff565b90506020020160208101906105cc91906111ea565b6001600160a01b031681526020810191909152604001600020805460ff1916911515919091179055838382818110610606576106066112ff565b905060200201602081019061061b91906111ea565b6001600160a01b03167f2df1cad2a2659e001c3804c872f69655356013e35c18c2e77a5d568078ab788f83604051610657911515815260200190565b60405180910390a2806106698161132b565b915050610598565b50505050565b6001600160a01b0383166000908152600660205260408120548211156106df5760405162461bcd60e51b815260206004820152601e60248201527f525741546f6b656e3a20696e73756666696369656e742062616c616e63650000604482015260640161058c565b6001600160a01b03841660009081526007602090815260408083203384529091529020548211156107525760405162461bcd60e51b815260206004820152601c60248201527f525741546f6b656e3a20616c6c6f77616e636520657863656564656400000000604482015260640161058c565b600954610100900460ff16156107d2576001600160a01b03841660009081526008602052604090205460ff1661079a5760405162461bcd60e51b815260040161058c90611344565b6001600160a01b03831660009081526008602052604090205460ff166107d25760405162461bcd60e51b815260040161058c90611385565b6004546001600160a01b038581169116146108095760095460ff166108095760405162461bcd60e51b815260040161058c906113c9565b6001600160a01b03841660009081526007602090815260408083203384529091528120805484929061083c90849061140a565b90915550506001600160a01b0384166000908152600660205260408120805484929061086990849061140a565b90915550506001600160a01b0383166000908152600660205260408120805484929061089690849061141d565b92505081905550826001600160a01b0316846001600160a01b03166000805160206115a0833981519152846040516108d091815260200190565b60405180910390a35060019392505050565b6004546001600160a01b0316331461090c5760405162461bcd60e51b815260040161058c906112be565b478061095a5760405162461bcd60e51b815260206004820152601e60248201527f525741546f6b656e3a206e6f2066756e647320746f2077697468647261770000604482015260640161058c565b6004546040516001600160a01b039091169082156108fc029083906000818181858888f19350505050158015610994573d6000803e3d6000fd5b506004546040518281526001600160a01b03909116907feaff4b37086828766ad3268786972c0cd24259d4c87a80f9d3963a3c3d999b0d9060200160405180910390a250565b3360008181526008602052604090205460ff16610a095760405162461bcd60e51b815260040161058c90611430565b600254600090610a1d9060ff16600a611557565b610a279084611566565b9050600060055484610a399190611566565b905080341015610a8b5760405162461bcd60e51b815260206004820152601f60248201527f525741546f6b656e3a20696e73756666696369656e74204554482073656e7400604482015260640161058c565b30600090815260066020526040902054821115610af85760405162461bcd60e51b815260206004820152602560248201527f525741546f6b656e3a206e6f7420656e6f75676820746f6b656e7320617661696044820152646c61626c6560d81b606482015260840161058c565b3060009081526006602052604081208054849290610b1790849061140a565b90915550503360009081526006602052604081208054849290610b3b90849061141d565b9091555050604051828152339030906000805160206115a08339815191529060200160405180910390a36040805185815234602082015233917f8fafebcaf9d154343dad25669bfa277f4fbacd7ac6b0c4fed522580e040a0f33910160405180910390a28034111561067157336108fc610bb5833461140a565b6040518115909202916000818181858888f19350505050158015610bdd573d6000803e3d6000fd5b5050505050565b6004546001600160a01b03163314610c0e5760405162461bcd60e51b815260040161058c906112be565b6001600160a01b038216600090815260086020526040902054829060ff16610c485760405162461bcd60e51b815260040161058c90611430565b8160036000828254610c5a919061141d565b90915550506001600160a01b03831660009081526006602052604081208054849290610c8790849061141d565b90915550506040518281526001600160a01b038416907f0f6798a560793a54c3bcfe86a93cde1e73087d944c0ea20544137d41213968859060200160405180910390a26040518281526001600160a01b038416906000906000805160206115a08339815191529060200160405180910390a3505050565b600254600090610d129060ff16600a611557565b30600090815260066020526040902054610d2c919061157d565b905090565b6004546001600160a01b03163314610d5b5760405162461bcd60e51b815260040161058c906112be565b60055460408051918252602082018390527fd9cc159fa79112d02593601db522a6696e6c5c82d9e9ca9332f89ec824935bb0910160405180910390a1600555565b6004546001600160a01b03163314610dc65760405162461bcd60e51b815260040161058c906112be565b600980549115156101000261ff0019909216919091179055565b6001805461047490611284565b6004546001600160a01b03163314610e175760405162461bcd60e51b815260040161058c906112be565b6001600160a01b038216600081815260086020908152604091829020805460ff191685151590811790915591519182527f2df1cad2a2659e001c3804c872f69655356013e35c18c2e77a5d568078ab788f910160405180910390a25050565b33600090815260066020526040812054821115610ed55760405162461bcd60e51b815260206004820152601e60248201527f525741546f6b656e3a20696e73756666696369656e742062616c616e63650000604482015260640161058c565b600954610100900460ff1615610f4c573360009081526008602052604090205460ff16610f145760405162461bcd60e51b815260040161058c90611344565b6001600160a01b03831660009081526008602052604090205460ff16610f4c5760405162461bcd60e51b815260040161058c90611385565b6004546001600160a01b03163314610f805760095460ff16610f805760405162461bcd60e51b815260040161058c906113c9565b3360009081526006602052604081208054849290610f9f90849061140a565b90915550506001600160a01b03831660009081526006602052604081208054849290610fcc90849061141d565b90915550506040518281526001600160a01b0384169033906000805160206115a083398151915290602001610550565b6004546001600160a01b031633146110265760405162461bcd60e51b815260040161058c906112be565b6009805460ff19168215159081179091556040519081527f63e9bb35ae90a43113bc6f999f1c6395e88ee5f59560b46bd45815fe8560efae9060200160405180910390a150565b600060208083528351808285015260005b8181101561109a5785810183015185820160400152820161107e565b506000604082860101526040601f19601f8301168501019250505092915050565b80356001600160a01b03811681146110d257600080fd5b919050565b600080604083850312156110ea57600080fd5b6110f3836110bb565b946020939093013593505050565b803580151581146110d257600080fd5b60008060006040848603121561112657600080fd5b833567ffffffffffffffff8082111561113e57600080fd5b818601915086601f83011261115257600080fd5b81358181111561116157600080fd5b8760208260051b850101111561117657600080fd5b60209283019550935061118c9186019050611101565b90509250925092565b6000806000606084860312156111aa57600080fd5b6111b3846110bb565b92506111c1602085016110bb565b9150604084013590509250925092565b6000602082840312156111e357600080fd5b5035919050565b6000602082840312156111fc57600080fd5b611205826110bb565b9392505050565b60006020828403121561121e57600080fd5b61120582611101565b6000806040838503121561123a57600080fd5b611243836110bb565b915061125160208401611101565b90509250929050565b6000806040838503121561126d57600080fd5b611276836110bb565b9150611251602084016110bb565b600181811c9082168061129857607f821691505b6020821081036112b857634e487b7160e01b600052602260045260246000fd5b50919050565b60208082526021908201527f525741546f6b656e3a2063616c6c6572206973206e6f7420746865206f776e656040820152603960f91b606082015260800190565b634e487b7160e01b600052603260045260246000fd5b634e487b7160e01b600052601160045260246000fd5b60006001820161133d5761133d611315565b5060010190565b60208082526021908201527f525741546f6b656e3a2073656e646572206e6f74204b594320617070726f76656040820152601960fa1b606082015260800190565b60208082526024908201527f525741546f6b656e3a20726563697069656e74206e6f74204b594320617070726040820152631bdd995960e21b606082015260800190565b60208082526021908201527f525741546f6b656e3a2074726164696e67206e6f742079657420656e61626c656040820152601960fa1b606082015260800190565b8181038181111561055c5761055c611315565b8082018082111561055c5761055c611315565b60208082526023908201527f525741546f6b656e3a204b594320766572696669636174696f6e2072657175696040820152621c995960ea1b606082015260800190565b600181815b808511156114ae57816000190482111561149457611494611315565b808516156114a157918102915b93841c9390800290611478565b509250929050565b6000826114c55750600161055c565b816114d25750600061055c565b81600181146114e857600281146114f25761150e565b600191505061055c565b60ff84111561150357611503611315565b50506001821b61055c565b5060208310610133831016604e8410600b8410161715611531575081810a61055c565b61153b8383611473565b806000190482111561154f5761154f611315565b029392505050565b600061120560ff8416836114b6565b808202811582820484141761055c5761055c611315565b60008261159a57634e487b7160e01b600052601260045260246000fd5b50049056feddf252ad1be2c89b69c2b068fc378daa952ba7f163c4a11628f55a4df523b3efa26469706673582212201e69c2c72739d38d9161f112e6b9b182d5c76d9bb811bf07f88e1edb1ce5455b64736f6c63430008140033",
  "linkReferences": {},
  "deployedLinkReferences": {}
}